S015000074726166666963206C696768742E73726563F8
S11300000C942A000C943F000C943F000C943F0085
S11300100C943F000C943F000C943F000C943F0060
S11300200C943F000C943F000C943F000C943F0050
S11300300C943F000C943F000C943F000C943F0040
S11300400C943F000C943F000C943F000C943F0030
S11300500C943F0011241FBECFE5D8E0DEBFCDBF16
S113006010E0A0E6B0E0ECE9F1E002C005900D92EA
S1130070AA36B107D9F70E9441000C94CC000C9425
S11300800000CF93DF93CDB7DEB72A970FB6F8946D
S1130090DEBF0FBECDBF8FEF8ABB87BB84BB8AE0B8
S11300A0E0E6F0E0DE01119601900D928A95E1F709
S11300B043E050E028C081E085BBE1E0F0E0EC0FD4
S11300C0FD1FE40FF51F80818BBB89E090E017C012
S11300D04330510511F480E090E0E1E0F0E0EC0FF2
S11300E0FD1FE80FF91F208128BB2FE936E861E0E6
S11300F0215030406040E1F700C00000019799238F
S11301003CF7415051095523B4F685E090E014C002
S113011022E025BBE1E0F0E0EC0FFD1FE80FF91F42
S1130120208128BB2FE936E841E02150304040408F
S1130130E1F700C000000197992354F743E050E031
S113014028C084E085BBE1E0F0E0EC0FFD1FE40F84
S1130150F51F80818BBB89E090E017C043305105C7
S113016011F480E090E0E1E0F0E0EC0FFD1FE80F17
S1130170F91F208128BB6FE926E831E06150204057
S11301803040E1F700C00000019799233CF741504B
S10F019051095523B4F68CCFF894FFCF2E
S10D019C3F065B4F666D7D077F6F21
S9030000FC
